:2000E400900C0AE4F0900C0BF0900C0CF0900C30E4F0900C31E4F0A3F0900C33E4F0A3F049
:20017C00C015858115AE82AF83A3A3E51524FCF8E6F008E6A3F08E828F83E51524FCF8E648
:20019C00F008E6A3F074042EFEE43FFFE51524FCF8E51524FBF9E726FCE40836FD8E828F21
:2001BC0083ECF0EDA3F0D01522AE82AF83900C06E0FCA3E0FD74202CFAE43DFBC3EA9406C0
:2001DC00EB940C4004EB24FCFBC006C007900C08E0FEA3E0FFEAB50606EBB507028006D0F3
:2001FC0007D006800AD007D0067582000202DCC007C006C003C0027420C0E0C004C0059099
:20021C00080012017C158115811581D002D003D006D007C007C006C003C00212023C80082D
:20023C00C006C00790080022D002D003D006D007900802E0FEA3E0FF900800E0FCA3E0FD1B
:20025C00EEB5040AEFB505067582000202DC900C06EAF0EBA3F0900800E0FEA3E0FF8E8249
:20027C008F83E0FFBF4115900C0AE02401F0E0FEBE14004048900C0AE4F0802EBF501590AD
:20029C000C0BE02401F0E0FEBE02004030900C0BE4F08016BF4D26900C0CE02401F0E0FF69
:2002BC00BF02004018900C0CE4F0900800E0FEA3E0FF7D008E828F838DF01204E775822065
:2002DC0022C015858115AD82AE83AFF0C007C006C00574D0C0E07401C0E07582001253A7A3
:2002FC00AC8215811581D005D006D007EC70457401C0E0C005C006C007900C0D1253F4AF4D
:20031C0082E58124FCF581EF701B12032B8010E51524FCF8E6C0E008E6C0E0900C0D229078
:20033C000C0D126C4BE4C0E0C0E07582001253A715811581D01522C200900C087406F07421
:20035C0008A3F0900C067406F07408A3F0900C2E7420F0E4A3F07582001207C122C01585B9
:20037C00811505810581AF150F7E007D40900C08E0FBA3E0FC7A00C007C006C005900C2E1D
:20039C00E0C0E0A3E0C0E0C003C004C002900C0D1260CAE58124F8F581900C30E02401F0B7
:2003BC00E0FFBF400B900C30E4F0900C0D126A37A815088682088683851581D01522C01567
:2003DC0085811505810581900C31E02401F0A3E03400F0E4C0E0C0E07402C0E0900C3175F5
:2003FC00F00012B807AE82AF83158115811581900C2EE0FCA3E0900C08E0FBA3E0FD7A005A
:20041C00C006C007C0048B828D838AF012B807AE82AF83158115811581A81508A60608A6C4
:20043C00077402C0E0E4C0E090BC2675F08012AA07AE82AF8315811581EE4F70030204D0D1
:20045C007402C0E0E4C0E0900C3175F00012AA07AE82AF8315811581EE4F6058900C08E0EA
:20047C00FEA3E0FF7D00900C2EE0C0E0A3E0C0E08E828F838DF012AA07AE82AF8315811587
:20049C0081900C2EE0FCA3E0FDEEB50427EFB50523AF150F7E007D407402C0E0E4C0E08FC8
:2004BC00828E838DF012AA07AE82AF8315811581EE4F7005900000800C900C2EE0FEA3E0C6
:2004DC00FF8E828F83851581D01522C01585811505810581AD82AE83AFF0900C33E02401EE
:2004FC00F0A3E03400F0C007C006C005E4C0E0C0E07402C0E0900C3375F00012B807AB828B
:20051C00AC83158115811581D005D006D007C007C006C005C003C0047420C0E08D828E831F
:20053C008FF012B807AB82AC83158115811581A81508A60308A604120E7EAC82D005D0069A
:20055C00D007BC2600404FC007C006C0057402C0E090BC2675F080120E2A15817402C0E082
:20057C00900C3375F000120E2A1581D005D006D0077420C0E08D828E838FF0120E2A158116
:20059C00AF150F7E007D407402C0E08F828E838DF0120E2A1581851581D01522C015E5813F
:2005BC00F5152404F581E5152403F87600087600AD088D04BC00028014BD0102800FBD03C3
:2005DC000302067DBD05030206B90206D330000302067174D0C0E07401C0E0758200125315
:2005FC00A7AD8215811581ED60030206D37412C0E07428C0E074BCC0E07480C0E0900C0D43
:20061C001253F4AD82E58124FCF581ED60030206D3900C17E0FAA3E0FBA3E0FCA3E0FDC045
:20063C0002C003C004C005900C0D126C6AE58124FCF581D200900C2EE4F07402A3F0900CAE
:20065C00087406F07408A3F0900C067406F07408A3F00207BBE5152403F876790876038015
:20067C0056900C2EE0FCA3E0FDBC2005BD00028020900C2E7420F0E4A3F0900C087406F0CF
:20069C007408A3F0900C067406F07408A3F00207BBE5152403F876DA087603801A100002BA
:2006BC008015900C0D126C4BE4C0E0C0E07582001253A715811581900C2EE0FCA3E0FD900E
:2006DC000C08E0FAA3E0FBEC2AFCED3BFDC3EC9406ED940C4004ED24FCFD900C08E0FAA316
:2006FC00E0FBC3EA9CEB9D503B900C06A81508E0F6A3E008F68A068B07A81508C3E69E08B3
:20071C00E69FB3E433FE600FA815088606088607C3EE9CEF9D40047F0080027F01EF24FF6B
:20073C0092188032C002C003900C06E0FEA3E0FFC3EE9CEF9DB3E433D003D0026007C3EE5A
:20075C009AEF9B40047F0080027F01EFB40100E433FF24FF9218201846E5152403F8E60888
:20077C00466031C005C004E5152403F88682088683120089AE82AF83D004D005EE4F601474
:20079C00D310AF01C3C0D0900F9AE0FF74044FF0D0D092AF900C08ECF0EDA3F00206D38547
:0507BC001581D015229B
:0ABC2600F7E06C6F672E6461740094
:2007C100E582FF6005758202800E1292093006047F0080027F038F8222E582FFB40100E42A
:2007E10033FF60047F0080027F038F8222C015858115E582FF60057582038049E51524F61A
:20080100F886078F061FEE6039C007E51524FBF8E6C0E008E6C0E008E6C0E0E51524F7F890
:2008210086820886830886F008E612961BAE82158115811581D007EE60C91296A775820148
:200841008003758200D01522C015858115058105810581E582FF60067582030208F7E515D3
:2008610024FDF8B600028014E51524FDF8B601028016E51524FDF8B60274804C128E74E5AC
:20088100826070758201806EE51524FAF8A91509E6F70809E6F70809E6F7900F9DE0FAA3D6
:2008A100E0FBA3E0FCA3E0FFA8150886820886830886F0EA12B8CEA3EB12B8CEA3EC12B8FE
:2008C100CEA3EF12B8CE802BE51524FAF88605088606088607900F9BE0FBA3E0FC8D828E7F
:2008E100838FF0EB12B8CEA3EC12B8CE80057582048003758200851581D01522C015858154
:2009010015E582FF60057582028049E51524F6F886078F061FEE6039C007E51524FBF8E6A2
:20092100C0E008E6C0E008E6C0E0E51524F7F886820886830886F008E6129661AE82158199
:1709410015811581D007EE60C91296A77582018003758200D01522BD
:20095800AF8974F05FF589438902438E04758AD8758CD8D28C75C14043C18022C01585815E
:2009780015AF82D2C5E5C0540560FAC2C574DC55C0FEBEC0028003020A378FC2C2C0E5C082
:20099800540560FA74FE55C0FEBEC2028003020A37EF30E047E51524FBF886050886060841
:2009B8008607E51524FAF88604C2C0E5C0540560FA74FC55C0FBBB88668D828E838FF0E571
:2009D800C212B8CEA3AD82AE831CE51524FAF8A604EC6004D2C180D1C2C18043E51524FB39
:2009F800F88605088606088607E51524FAF886048C031CEB60228D828E838FF012BB9AF586
:200A1800C2A3AD82AE83C2C0E5C0540560FA74FE55C0FBBBC20280D8E51524FAF8A604D23A
:0D0A3800C4C2C0E51524FAF88682D015224C
:200A4500AF82AEA28FA28E822275A17075F80F75823B120A452275A3FF10FF0280FB2285AC
:200A650082A310FF0280FB85A38222C01585811505810581AD82AE83AFF0E51524FCF8A93E
:200A85001509E6F70809E6F7A815088602088604A8150816B6FF020816EA4C601A75A3FF12
:200AA50010FF0280FB8D828E838FF0E5A312B8CEA3AD82AE8380D1851581D01522C0158516
:200AC500811505810581AD82AE83AFF0E51524FCF8A91509E6F70809E6F7A8150886020877
:200AE5008604A8150816B6FF020816EA4C60178D828E838FF012BB9AF5A3A3AD82AE831059
:0C0B0500FF0280FB80D4851581D01522F2
:200B1100AE82AF83C28E74FF2F400B8E05EDF4F58D438E088066EFC313CE13CEC313CE1345
:200B3100CEFFC3940150128E05EDF4F58DAD8E74F45DF58E438E0180437403C0E0E4C0E074
:200B51008E828F8312B89DAE82AF831581158174FF2F400F8E05EDF4F58DAD8E74F45DF591
:200B71008E8019EFC313CE13CEC313CE13CEEEF4F58DAF8E74F45FF58E438E02858D8BAF3A
:200B910089740F5FF589438920D28E227598107420C0E07400C0E07400C0E0900C3575F03E
:200BB1000012740715811581158174E0C0E07420C0E07400C0E0900C3C75F00012740715BA
:200BD10081158115819009C4120B11C29BD2AC22C015858115AD82AE83AFF0E51524FDF8CD
:200BF100E66034E51524FDF8E6C0E0C005C006C007900C3575F000127494AF82E58124FC78
:200C1100F581E51524FDF8A607C2ACE598540A60028002D299D2ACE51524FDF88682D01577
:200C310022900C3575F000127BEF22C015858115AD82AE83AFF0E51524FDF8E6C0E0C00560
:200C5100C006C007900C3C75F0001277EDE58124FCF581D01522900C3C75F000127B4D2207
:200C7100C0E0C082C083C007C006C005C004C003C002C000C0D075D000C015858115058198
:200C910005811098028065900C3FE0FEA3E0FFA8150874012EF6E43F08F6900C3CE0FAA31F
:200CB100E0FB900C3EE02AFDE43BFCA81508E6B5050708E6B5040280028008A81508A602C0
:200CD10008A603900C41E0FCA3E0FDA81508E6B5040708E6B5050280138E828F83E599F0E1
:200CF100900C3FA81508E6F008E6A3F0109902805E7F00900C3AE0FDA3E0FE900C38E0FB01
:200D1100A3E0FCEDB50306EEB50402803974012DFBE43EFC900C3AEBF0ECA3F08D828E832B
:200D3100E0F599900C35E0FFA3E0FD900C37E02FFAE43DFEEBB5020CECB50608900C3AEFE7
:200D5100F0EDA3F07F01EF6004D29B8002C29B851581D015D0D0D000D002D003D004D00535
:200D7100D006D007D083D082D0E032C015858115C082AF150F7E007D407401C0E08F828E3A
:200D9100838DF0120BE1AF821581EF60E51581D01522C0158581150581AF150F7E007D4028
:1E0DB1007401C0E08F828E838DF0120C3CAF821581EF60E5A8150886821581D01522B1
:200DCF00AE82AF8375AC038F058DB58EB443AC402275D2107480C0E07400C0E07401C0E001
:200DEF00900C4375F0001274071581158115817440C0E07480C0E07401C0E0900C4A75F009
:200E0F000012740715811581158190F63C120DCFAFD274F75FF5D243E70222C01585811574
:200E2F00AD82AE83AFF0E51524FDF8E66037E51524FDF8E6C0E0C005C006C007900C4375D5
:200E4F00F000127494AF82E58124FCF581E51524FDF8A60753E7FDE5D2540A600280034318
:200E6F00D20243E702E51524FDF88682D01522900C4375F000127BEF22C015858115AD8240
:200E8F00AE83AFF0E51524FDF8E6C0E0C005C006C007900C4A75F0001277EDE58124FCF54C
:200EAF0081D01522900C4A75F000127B4D22C0E0C082C083C007C006C005C004C003C00294
:200ECF00C000C0D075D000C01585811505810581E5D230E06CAFD274FE5FF5D2900C4DE05D
:200EEF00FEA3E0FFA8150874012EF6E43F08F6900C4AE0FAA3E0FB900C4CE02AFDE43BFC9C
:200F0F00A81508E6B5050708E6B5040280028008A81508A60208A603900C4FE0FCA3E0FD3E
:200F2F00A81508E6B5040708E6B5050280138E828F83E5D3F0900C4DA81508E6F008E6A31B
:200F4F00F0E5D230E16BAFD274FD5FF5D27F00900C48E0FDA3E0FE900C46E0FBA3E0FCED5D
:200F6F00B50306EEB50402803974012DFBE43EFC900C48EBF0ECA3F08D828E83E0F5D390F1
:200F8F000C43E0FFA3E0FD900C45E02FFAE43DFEEBB5020CECB50608900C48EFF0EDA3F0EB
:200FAF007F01EF600543D2088007AFD274F75FF5D2851581D015D0D0D000D002D003D004AF
:0D0FCF00D005D006D007D083D082D0E0320C
:200FDC00C0158581150581AD82AE83AFF0E51524FBF8E66057E51524FBF8E61475F002A4BC
:200FFC002468F582740C35F0F583E0FBA3E0FCE51524FCF8C3E69B08E69C500CE51524FC05
:20101C00F88603088604801AE51524FBF8E61475F002A42468F582740C35F0F583E0FBA353
:20103C00E0FCE51524FCF8A60308A604E51524FCF8E6084670030210D3E51524FBF8742008
:20105C0026F5964396C0E59620E7FBED4E6042E51524FCF8E624FFFB08E634FFFCEB4C6006
:20107C001C8D828E838FF0E59712B8CEA3AD82AE83E59620E7FB1BBBFF011C80E0AC9674FD
:20109C00BF5CF5968D828E838FF0E59712B8CE8023E51524FCF8E624FFFE08E634FFFFEE11
:2010BC004F6011A81508A697E59620E7FB1EBEFF011F80EB759600E51524FCF886820886BC
:2010DC00831581D01522C015858115C082C083C0F0E5812404F581E51524FBF8E675F0024D
:2010FC00A42430F58274BC35F0F583E493FBA3E493FCE51524FCF8C3E69B08E69C500CE5EF
:20111C001524FCF8860708860680048B078C06E5152406F8A60708A606E5152406F8E60836
:20113C0046700302120CE59620E7FBE51524FBF8742026F596A8150886820886830886F08B
:20115C0012BB9AFAA312BB9AFBA312BB9AFCEA4B6070E5152406F8E5152404F9E6F70809DD
:20117C00E6F7E5152404F8E60846700302120CA8150886820886830886F012BB9AFAA31223
:20119C00BB9AFEA312BB9AFF74012AFBE43EFC8F05A8150886820886830886F0EB12B8CEAC
:2011BC00A3EC12B8CEA3ED12B8CE8A828E838FF012BB9AF597E5152404F816B6FF02081630
:2011DC0080A0A81508740326FDE40836FE088607E5152406F88603088604EB4C60128D82D0
:2011FC008E838FF012BB9AF5971BBBFF011C80EAE5152406F88682088683851581D015229D
:20121C00AF82E59620E7FB75960E8F97E59620E7FB759691E59620E7FBE597FE30E535EF7C
:20123C001475F002A4246EF582740C35F0F583E0FDA3E0FFE59620E7FB75961174DF5EF5AF
:20125C0097ED4F600FC007C0058D828F83120089D005D00722AF82E59620E7FB75960E8FC4
:20127C0097E59620E7FB759694E59620E7FBE597FE30E63874022F75F002A4246EF582742D
:20129C000C35F0F583E0FCA3E0FDE59620E7FB75961474BF5EF597EC4D607CC005C0048C4A
:2012BC00828D83120089D004D005806B74032F2461F582E4340CF583E0FE7D0053067FBE22
:2012DC000310BD000DE59620E7FB7596147597208045E59620E7FB759697E59620E7FBEFFD
:2012FC001475F002A42468FD740C35F0FE8D828E83A3E597F0E59620E7FB759696E596209F
:20131C00E7FBEF1475F002A42468FE740C35F0FF8E828F83E597F022C015E581F515240476
:20133C00F581E59620E7FB75960E759700E59620E7FB759691E59620E7FBAF97900C61E0C0
:20135C00FEBE0513E59620E7FB759600900C54E0F597900C61E4F0EF30E213E59620E7FB57
:20137C00759611759700900C61E4F00215D8EF30E41BE59620E7FB759611759708E5962003
:20139C00E7FB759611759780900C61E4F0900C61E0600302142EEF20E00302142EE4C0E098
:2013BC007408C0E0E4C0E0900C5275F000120FDC158115811581C201900C52E0FE53066017
:2013DC00BE0002800ABE2002800ABE400F800A12B75A800812B03D800312B067E59620E7CE
:2013FC00FB75960E759700200114E59620E7FB759611759720900C617404F00215D87F40A4
:20141C00900C61E070027F48E59620E7FB7596118F97900C61E0FEBE01028009BE020302F1
:20143C0015150215D8EF30E1030215D8E59620E7FB759691E59620E7FBE597FF30E407EF6A
:20145C0030E0030215D87F02A91509900C5AE0FCA3E0FDA3E0FEA70409A70509A706900CA1
:20147C005DE0FDA3E0FEAC150C7B007A40C007C006C005E4C0E0C005C0068C828B838AF09C
:20149C001210E2AB82AC83158115811581D005D006D007EDC39BFDEE9CFE900C5DEDF0EEF8
:2014BC00A3F0ED4E601F900C5AE0FCA3E0FDA3E0FE74402CFCE43DFD900C5AECF0EDA3F0A4
:2014DC00EEA3F08027900C5FE0FDA3E0FE4D6015C007C006C0058D828E83120089D005D0FB
:2014FC0006D00780077F0A900C61E4F0E59620E7FB7596118F970215D8EF20E0030215D883
:20151C007F40E59620E7FB759696E59620E7FBC007AE978E047D00900C5AE0FAA3E0FBA349
:20153C00E0FFC007C006C005C004E4C0E0C004C0058A828B838FF0120FDC15811581158135
:20155C00D004D005D006D007900C5DE0FBA3E0FAC3EC9BED9AD00750318E047D00EBC39C46
:20157C00FCEA9DFD900C5DECF0EDA3F0900C5AE0FBA3E0FCA3E0FDEE2BFBE43CFC900C5A84
:20159C00EBF0ECA3F0EDA3F08028900C5DE4F0A3F07F48900C61F0900C5FE0FDA3E0FEC080
:2015BC0007C006C0058D828E83120089D005D006D007E59620E7FB7596118F97851581D096
:2015DC0015222222900C517402F0900C61E4F07F01EF2461F582E4340CF5837403F0EF14DF
:2015FC0075F002A4FDAEF0246EF582EE340CF583E4F0A3F074022F75F002A4246EF58274E6
:20161C000C35F0F583E4F0A3F0ED2468F582EE340CF583E4F0A3F00FEF24FC50B4E59620E4
:20163C00E7FB75960175970112B0392275D7E0E59620E7FB75960F7597801215E043E602F5
:20165C0022900C7AE4F0A3F0E59620E7FB759601759708E59620E7FB75960775970FE5960D
:20167C0020E7FB75960975970FE59620E7FB75960B759707E5C930E60E7508011216489027
:20169C00006412B7E5800375080022C023C0E0C0F0C082C083C007C006C005C004C003C0A9
:2016BC0002C001C000C0D075D000E59620E7FB759686E59620E7FBAF97E59620E7FB75965D
:2016DC0082E59620E7FBAE97E59620E7FB759684E59620E7FBAD97EF30E10FC007C006C081
:2016FC00051215DED005D006D007EE30E00FC007C006C005121334D005D006D0077C027B0F
:20171C0001EC5E60198B82C007C006C005C004C00312121CD003D004D005D006D007EC5D51
:20173C0060198B82C007C006C005C004C003121271D003D004D005D006D0070BEC2CFCEB66
:20175C0024FC50BDEF30E31D900C7AE0FDA3E0FE4D6012C007900C7AE0F8A3E0F583888234
:20177C00120089D007EF30E007C0071215DFD007EF30E2031215E0D0D0D000D001D002D043
:20179C0003D004D005D006D007D083D082D0F0D0E0D02332C015858115C082C083C0F0E590
:2017BC00812406F581A8150886820886830886F0E5152404F912BB9AF7A312BB9A09F7A36A
:2017DC0012BB9A09F7E51524FCF8E5152407F9E6F70809E6F7E51524FBF8E62461FBE434FC
:2017FC000CFCE4FAFFE5152409F8A6E653E6FDE59620E7FB75960EE51524FBF886978B8236
:20181C008C83E0FD7E0053057FBD0310BE000DE59620E7FB7596117597108069E59620E7B0
:20183C00FB759691E59620E7FBE597FD20E056ED30E20BE59620E7FB759611759700C00436
:20185C00C003E51524FBF8E6C0E0E51524FCF8E6C0E008E6C0E0A815088682088683088680
:20187C00F01210E2AD82AE83158115811581D003D0048D028E07ED4E600BE59620E7FB75D3
:20189C009611759701E5152409F8E630E10343E602EA4F6050E5152404F8E60846602CE58C
:2018BC00152404F8EA26F6EF0836F6A8150886820886830886F0E5152404F9E712B8CEA315
:2018DC0009E712B8CEA309E712B8CEE51524FCF8E6C39AF608E69FF6E51524FCF8E6084625
:2018FC0060030217FEE5152407F8E51524FCF9E6C397F58208E60997F583851581D0152243
:20191C00C015E581F5152404F581AD82AE83AFF0E51504F8A60508A60608A607AF150F7E6E
:20193C00007D40E51524FBF8E6C0E0E51524FCF8E6C0E008E6C0E08F828E838DF01217B099
:20195C00158115811581851581D01522C015E581F5152404F581AF82E51504F87600087689
:20197C0000087600AE150E74032EF8A6077F007D40E51524FBF8E6C0E0E51524FCF8E6C027
:20199C00E008E6C0E08E828F838DF01217B0158115811581851581D01522AF82AEE653E663
:2019BC00FDEF1475F002A42468F582740C35F0F583E0FDA3E0FFEE30E10343E6028D828FB6
:2019DC008322C015858115AD82AE83AFF0E51524FBF8E6C0E0E51524FCF8E6C0E008E6C07A
:2019FC00E08D828E838FF0120FDCAE82AF83158115811581E51524FBF8E61475F002A424F1
:201A1C0068FC740C35F0FD8C828D83E0FAA3E0FBEAC39EFAEB9FFB8C828D83EAF0EBA3F0EE
:201A3C00EA4B7026ADE653E6FDE59620E7FB75960EE51524FBF88697E59620E7FB75961496
:201A5C00759700ED30E10343E6028E828F83D01522C015858115AE82AF83E51524FDF8E6BE
:201A7C00C0E0C006C00790000075F0001219DE158115811581D01522E582FF1475F002A4D1
:201A9C002468F582740C35F0F583E0FDA3E0FEC007C005C00690000075F0001219DE1581C6
:201ABC001581158122C015858115AF82AEE653E6FDE4BF040104FF600BE51524FDF8740331
:201ADC0026FD8007E51524FDF88605ED2461FCE4340CFDEF600BE51524FDF8740326FF808A
:201AFC0007E51524FDF88607EF2461F582E4340CF583E0FF4307808C828D83EFF0EE30E1F7
:201B1C000343E602D01522C015858115AF82AEE653E6FDE4BF040104FF600BE51524FDF860
:201B3C00740326FD8007E51524FDF88605ED2461FCE4340CFDEF600BE51524FDF874032631
:201B5C00FF8007E51524FDF88607EF2461F582E4340CF583E0FF53077F8C828D83EFF0EE19
:201B7C0030E10343E602D01522C015858115AF82AEE653E6FDE4BF040104FD600BE51524E6
:201B9C00FDF8740326FC8007E51524FDF88604EC2461FBE4340CFCED600BE51524FDF8740C
:201BBC000326FD8007E51524FDF88605ED2461F582E4340CF583E0FD74805D4403FD8B82BA
:201BDC008C83F0E59620E7FB75960EE51524FDF88697EF702DE59620E7FB759611759710E3
:201BFC00E51524FDF8E61475F002A4246EF582740C35F0F583E51524FBF8E6F008E6A3F023
:201C1C00802CE59620E7FB759614759720E51524FDF874022675F002A4246EF582740C35BC
:201C3C00F0F583E51524FBF8E6F008E6A3F0EE30E10343E602D01522C015858115AF82AEB5
:201C5C00E653E6FDE4BF040104FD600BE51524FDF8740326FC8007E51524FDF88604EC2458
:201C7C0061FBE4340CFCED600BE51524FDF8740326FD8007E51524FDF88605ED2461F582B9
:201C9C00E4340CF583E0FD5305808B828C83EDF0E59620E7FB75960EE51524FDF88697EF29
:201CBC00700DE59620E7FB759611759700800BE59620E7FB759614759700EE30E10343E688
:201CDC0002D01522E508FF24FA403AEF2F2F901CEE73021D00021D0D021D0F021D14021D36
:201CFC0019021D1EE5C930E60675080112164880268012750803800D12A85380087508055E
:181D1C00800312ACBAE5C920E60DAFE674FD5FF5E675D70075080022C8
:08BC300040001000400040003C
:201D3400C015858115AD82AE83AFF08D828E838FF012BB9AFC601CEC3395E0FBE51524FC79
:201D5400F8E6B5040708E6B5030280070DBD00DB0E80D88D828E838FF012BB9AFD3395E0EC
:201D7400FF8D828F83D01522C015E581F515240EF581AB82AA8374042BFCE43AFD8C828D8C
:201D940083E07003021F59C004C005742E2BF582E43AF583E515240BF8E0F6A3E008F6A361
:201DB400E008F6A3E008F6E5152403F874322BF6E43A08F6E5152403F886040886057F00FF
:201DD400A8150874012BF6E43A08F6A815088682088683E0FEC005C004C003C0027401C079
:201DF400E0E515240BF8E6C0E008E6C0E008E6C0E008E6C0E0C004C005C0078E821208FD27
:201E1400AF82E58124F8F581D002D003D004D005D005D004EF6006758201021F5C8C828D29
:201E340083E4F074222BF582E43AF583E5152407F8E0F6A3E008F6A3E008F6A3E008F6E50E
:201E540015240BF8E5152407F9C3E69708E6099708E6099708E609975003021F59E515243F
:201E740005F8741A2BF6E43A08F6E5152405F88682088683E0FCA3E0FDA3E0FEA3E0FFE50E
:201E9400152407F8EC26FCED0836FDEE0836FEEF0836FFE515240BF8C3E69C08E69D08E68B
:201EB4009E08E69F4003021F598B828A83A3A3A3E0FE7F00E5152403F8E5152407F9E6F7B2
:201ED4000809E6F7C3EE9402EF94004078E5152405F88682088683E0FAA3E0FBA3E0FCA3D0
:201EF400E0FDE515240BF8EA26F6EB0836F6EC0836F6ED0836F6E5152407F8860308860432
:201F14007D00A815088682088683E0FAC007C0067401C0E0E515240BF8E6C0E008E6C0E0A1
:201F340008E6C0E008E6C0E0C003C004C0058A821208FDE58124F8F581D006D0071EBEFF82
:201F5400011F021ED8758200851581D01522C015858115C082C083A81508742E26FCE40852
:201F740036FD8C828D83E0FAA3E0FBA3E0FEA3E0FFE51524FAF8E6B5021208E6B5030D0827
:201F9400E6B5060808E6B50703022026A815088682088683C005C004121D7CE582D004D072
:201FB400056005758201806DA81508743226FEE40836FF7B00A815088682088683A3E0FA38
:201FD400C005C0047401C0E0E51524FAF8E6C0E008E6C0E008E6C0E008E6C0E0C006C00782
:201FF400C0038A821207EEAF82E58124F8F581D004D005EF6005758201801A8C828D83E53C
:202014001524FAF8E6F008E6A3F008E6A3F008E6A3F0758200851581D01522C0158581151F
:20203400C082C083E5812408F581A815088682088683121D7CE582FD600302221DA81508A9
:202054008682088683E0FCBC030280030221F3A81508E5152409F9740526F7E4083609F780
:20207400E5152409F88682088683E070030221F3C005A81508742E26F582E40836F583E464
:20209400F0A3F0A3F0A3F0A81508743226FAE40836FD8A048D067F00C005C002E4C0E074BA
:2020B40002C0E0E4C0E08C828E838FF012BA9D158115811581D002D00574FE2AFE74013D2A
:2020D400FF8E828F837455F0F4A3F08A068D078E828F837452F0A3F07461A3F07441A3F04C
:2020F40074E42AFE74013DFF8E828F837472F0A3F07441A3F07461A3F074E82AFE74013D2A
:20211400FFE5152403F8A60608A607A81508740E26F582E40836F583E0FBA3E0FCA3E0FED9
:20213400A3E0FFE5152403F88682088683EBF0ECA3F0EEA3F0EFA3F074EC2AFE74013DFF41
:20215400E5152403F8A60608A607A81508740A26F582E40836F583E0FBA3E0FCA3E0FEA3F9
:20217400E0FFE5152403F88682088683EBF0ECA3F0EEA3F0EFA3F0A81508741226F582E411
:202194000836F583E5152405F8E0F6A3E008F6A3E008F6A3E008F67F00A815088682088627
:2021B40083A3E0FEC0057401C0E0E5152405F8E6C0E008E6C0E008E6C0E008E6C0E0C00220
:2021D400C005C0078E821208FDE58124F8F581D005E5152409F88682088683E4F0D005A8E2
:2021F40015088682088683A3E0FFC005E4C0E0C0E0C0E0C0E08F82120849AF82E58124FCBF
:20221400F581D005EF60027D018D82851581D01522C015E581F5152404F581AE82AF83E535
:202234001524FAF8E624FEF608E634FFF608E634FFF608E634FFF674162EF582E43FF58352
:20225400E0FAA3E0FBA3E0FCA3E0FDEA24FEFAEB34FFFBEC34FFFCED34FFFDE51524FAF8AC
:20227400C3E69A08E69B08E69C08E69D4008900000E4F5F0806F8E828F83A3A3E0FD7C0018
:202294007B007A00C007C006C005C004C003C002E51524FAF886820886830886F008E612F3
:2022B400BBB6A81508A68208A68308A6F008F6E58124FCF581D006D007742A2EF582E43FD0
:2022D400F583E0FCA3E0FDA3E0FEA3E0FFA81508EC26FCED0836FDEE0836FEEF0836FF8C36
:2022F400828D838EF0851581D01522C015858115C082C083E5812408F581E51524FAF8C348
:20231400E6940208E6940008E6940008E69400402BA81508741626F582E40836F583E0FADC
:20233400A3E0FBA3E0FCA3E0FDE51524FAF8C3E69A08E69B08E69C08E69D4009900001E45D
:20235400F5F0022681A815088682088683E0FDBD0102800FBD020302250EBD03030225B23E
:2023740002267AE51524FAF8E5152409F9E6F70809E6F7E5152409F8860208E6C313CA1364
:20239400CAFBE5152409F8EA26F6EB0836F6A81508742226FAE40836FB8A828B83E5152450
:2023B40003F8E0F6A3E008F6A3E008F6A3E008F6E5152409F808E6C313FEE4FFFDFCE515FE
:2023D4002403F8EE26FEEF0836FFED0836FDEC0836FCC003C002C006C007C005C004A815E6
:2023F400088682088683121F62AF82E58124FCF581D002D003EF600302267AA815087432E4
:2024140026FEE40836FFE5152409F8860474010856FDEC2EF582ED3FF583E0FFE5152407B1
:20243400F8A607087600E5152409F806B6000208068A828B83E5152403F8E0F6A3E008F6F0
:20245400A3E008F6A3E008F6E5152409F808E6C313FE7F008E048F05E4FEFFE5152403F8E6
:20247400EC26FCED0836FDEE0836FEEF0836FFC004C005C006C007A81508868208868312B6
:202494001F62AF82E58124FCF581EF600302267AA81508743226FEE40836FFE5152409F8B7
:2024B400860474010856FDEC2EF582ED3FF583E0FE7F00E5152407F8EF46F6EE0846F6E5BD
:2024D4001524FAF8E630E018E5152407F8860608E6C4CEC4540F6ECE540FCE6ECEFF800C2B
:2024F400E5152407F88606740F0856FF7D007C008E828F838DF0EC022681A8150874222691
:20251400F582E40836F583E5152403F8E0F6A3E008F6A3E008F6A3E008F6E51524FAF8080C
:2025340086020886030886067F00E5152403F8EA26FAEB0836FBEE0836FEEF0836FFC002FC
:20255400C003C006C007A815088682088683121F62AF82E58124FCF581EF600302267AA8DD
:202574001508743226FEE40836FFE51524FAF8E625E0FA08E633FB08E63308E63353030195
:20259400E4EA2EFEEB3FFF8E828F83E0FEA3E0FF7D007C008E828F838DF0EC022681A81598
:2025B40008742226F582E40836F583E5152403F8E0F6A3E008F6A3E008F6A3E008F6E515C6
:2025D40024FAF8860208E6A2E7CA33CA33CA5401FB08E625E04BFB860608E6A2E7CE33CEB3
:2025F40033CE5401FFE5152403F8EA26FAEB0836FBEE0836FEEF0836FFC002C003C006C0CA
:2026140007A815088682088683121F62AF82E58124FCF581EF704FA81508743226FEE408D8
:2026340036FFE51524FAF8E625E0FA08E633FB08E633FC08E633FDEA2AFAEB33FBEC33EDD2
:2026540033530301E4EA2EFEEB3FFF8E828F83E0FCA3E0FDA3E0FEA3E0FF53070F8C828D34
:20267400838EF0EF800790FFFF74FFF5F0851581D01522C015858115C082C083E581240CBC
:20269400F581E51524FAF8C3E6940208E6940008E6940008E69400402BA81508741626F506
:2026B40082E40836F583E0FAA3E0FBA3E0FCA3E0FDE51524FAF8C3E69A08E69B08E69C0825
:2026D400E69D40057D02022AB9A815088682088683E0FCBC0102800FBC02030228E9BC031F
:2026F40003022992022AA8E51524FAF8E515240DF9E6F70809E6F7E515240DF8860208E69A
:20271400C313CA13CAFCE515240DF8EA26F6EC0836F6A81508E5152407F9742226F7E40861
:202734003609F7E5152407F88682088683E5152403F9E0F7A3E009F7A3E009F7A3E009F79F
:20275400E515240DF808E6C313FBE4FFFEFCE5152403F8EB26FBEF0836FFEE0836FEEC0837
:2027740036FCC003C007C006C004A815088682088683121F62AF82E58124FCF5818F05EDE0
:202794006003022AAAA81508743226FEE40836FFE515240DF8860374010856FCEB2EFEECBE
:2027B4003FFFE51524FAF8E630E0178E828F83E0FC53040FE51524F6F8E6C454F0FB42040B
:2027D4008007E51524F6F886048E828F83ECF0E515240DF806B600020806A8150886820806
:2027F4008683A3A3A3A37401F0E5152407F88682088683E0FFA3E0FEA3E0FDA3E0FAE5153E
:20281400240DF808E6C313FB7C00E5152409F8A60308A604087600087600E5152409F8E6C5
:202834002FFF08E63EFE08E63DFD08E63AFCC007C006C005C004A815088682088683121FBB
:2028540062AC82E58124FCF5818C05ED6003022AAAC005A81508743226FBE40836FCE515B8
:20287400240DF8860274010856FDEA2BFBED3CFC8B068C07E51524FAF8E6D00530E037C098
:2028940006C007E51524F6F8860208E6C4CAC4540F6ACA540FCA6ACAFB08E6C454F04BFB54
:2028B400860408E6C4CCC4540F6CCC540FCC6CCCD007D00680168E828F83E0FC5304F0E5C9
:2028D4001524F6F8088603740F5B4CFA8E828F83EAF0022AAAA81508742226F582E408361C
:2028F400F583E5152409F8E0F6A3E008F6A3E008F6A3E008F6E51524FAF8088602088604A2
:202914000886067F00E5152409F8EA26FAEC0836FCEE0836FEEF0836FFC002C004C006C0DF
:2029340007A815088682088683121F62AF82E58124FCF5818F05ED6003022AAAC005A815A2
:2029540008743226FEE40836FFE51524FAF8E625E0FA08E633FB08E63308E633530301E4E2
:20297400EA2EFEEB3FFFE51524F6F886040886058E828F83ECF0EDA3F0D005022AAAA815F5
:2029940008742226F582E40836F583E5152409F8E0F6A3E008F6A3E008F6A3E008F6E515DC
:2029B40024FAF8860208E6A2E7CA33CA33CA5401FC08E625E04CFC860608E6A2E7CE33CECC
:2029D40033CE5401FFE5152409F8EA26FAEC0836FCEE0836FEEF0836FFC002C004C006C0DD
:2029F40007A815088682088683121F62AF82E58124FCF5818F05ED6003022AAAC005E515A5
:202A140024FAF8E625E0FB08E633FC08E633FE08E633FFEB2BFBEC33FCEE33EF33E51524BD
:202A3400FAF8A60374015C08F6087600087600A81508743226FEE40836FFE51524FAF886D6
:202A540002088603088604088605EA2EFEEB3FFF8E828F83E0A3E0A3E0A3E0FD7A007B00EE
:202A74007C005305F0E51524F6F8EA46F6EB0846F6EC0846F6ED0846F68E828F83E515247C
:202A9400F6F8E6F008E6A3F008E6A3F008E6A3F0D00580027D02A815088682088683A3A3E1
:202AB400A3A37401F08D82851581D01522C015858115C082C083E5812409F581E51524FA90
:202AD400F8C3E6940208E6940008E6940008E69400402DA81508741626FCE40836FD8C821A
:202AF4008D83E0FAA3E0FBA3E0FEA3E0FFE51524FAF8C3E69A08E69B08E69E08E69F400A18
:202B1400E515240BF87602022CB8E515240BF876008C828D83E0FAA3E0FBA3E0FEA3E0FF12
:202B3400E51524FAF8C3E69A08E69B08E69E08E69F4003022CB8C005C004E51524FAF8E6E4
:202B5400C0E008E6C0E008E6C0E008E6C0E0A8150886820886831222FFAF82AE83ABF0FA0F
:202B7400E58124FCF581D004D005E5152407F8A60708A60608A60308A602E5152407F8E6BA
:202B94000846084608467003022CB8E5152407F8B6011608B6001208B6000E08B6000AE5AB
:202BB40015240BF87602022CB8E5152407F8B6FF1608B6FF1208B6FF0E08B6FF0AE5152400
:202BD4000BF87601022CB8C004C005C004E4C0E0C0E0C0E0C0E0E51524FAF8E6C0E008E64C
:202BF400C0E008E6C0E008E6C0E0A815088682088683122687AD82E58124F8F581D004E588
:202C140015240BF8A605D005D004E515240BF8E66003022CB8A81508740E26FBE40836FA3C
:202C34008B828A83E5152403F8E0F6A3E008F6A3E008F6A3E008F6E5152403F8B6FF0E0810
:202C5400B6FF0A08B6FF0608B6FF02803CC004C005E5152403F8740126FCE40836FDE4081F
:202C740036FEE40836FF8B828A83ECF0EDA3F0EEA3F0EFA3F0A815088682088683A3A3A3AB
:202C9400A3A37401F0D005D004E5152407F8E51524FAF9E6F70809E6F70809E6F70809E6EE
:202CB400F7022B25E515240BF88682851581D01522C015858115C082C083E581240EF581E9
:202CD400E51524FAF8E6084608460846706DA81508740A26F582E40836F583E515240DF886
:202CF400E0F6A3E008F6A3E008F6A3E008F6E515240DF8E6084608460846602EA8150874AD
:202D14001626F582E40836F583E0FCA3E0FDA3E0FEA3E0FFE515240DF8C3E69C08E69D08F8
:202D3400E69E08E69F5003022E00E515240DF87601E408F608F608F6022E00E51524FAF833
:202D5400E6C0E008E6C0E008E6C0E008E6C0E0A8150886820886831222FFAA82AB83ACF028
:202D7400FDE58124FCF581E5152405F8A60208A60308A60408A605E5152405F8C3E6940213
:202D940008E6940008E6940008E694005009900001E4F5F002308AA81508741626F582E45A
:202DB4000836F583E0FCA3E0FDA3E0FEA3E0FFE5152405F8C3E69C08E69D08E69E08E69FE6
:202DD4005012E5152405F886820886830886F008E602308AE51524FAF8E515240DF9E6F710
:202DF4000809E6F70809E6F70809E6F7E515240DF8E5152409F9E6F70809E6F70809E6F7F9
:202E14000809E6F7E515240DF8C3E6940208E6940008E6940008E69400E433FFA81508E508
:202E3400152403F9741626F7E4083609F7C007E5152409F806B6000C0806B600070806B643
:202E540000020806E5152403F88682088683E0FCA3E0FDA3E0FEA3E0FFE5152409F8C3E6F5
:202E74009C08E69D08E69E08E69FD007401AE5152409F87602E408F608F608F6EF60099070
:202E94000000E4F5F002308AC007E5152409F8E6C0E008E6C0E008E6C0E008E6C0E0A815C6
:202EB4000886820886831222FFAB82AC83ADF0FEE58124FCF581D007E5152405F8A6030814
:202ED400A60408A60508A606E5152405F8E60846084608466072E5152405F8B6FF0E08B674
:202EF400FF0A08B6FF0608B6FF028014E5152405F8B6011E08B6001A08B6001608B6001233
:202F1400E5152405F886820886830886F008E602308AE5152409F8E515240DF986F0E7B5EC
:202F3400F01A0886F009E7B5F0120886F009E7B5F00A0886F009E7B5F0028003022E419098
:202F54000000E4F5F002308A74FFC0E0C0E0C0E0740FC0E0E5152409F8E6C0E008E6C0E02F
:202F740008E6C0E008E6C0E0A815088682088683122687AF82E58124F8F581EF704BE515B7
:202F940024FAF8E6084608460846603DE5152409F8E6C0E008E6C0E008E6C0E008E6C0E04B
:202FB400E51524FAF8E6C0E008E6C0E008E6C0E008E6C0E0A815088682088683122687AE72
:202FD40082E58124F8F5818E07EF7076A81508740A26F582E40836F583E5152409F8E6F08A
:202FF40008E6A3F008E6A3F008E6A3F0A81508740E26FFE40836FD8F828D83E0FAA3E0FB36
:20301400A3E0FCA3E0FEBAFF0BBBFF08BCFF05BEFF0280531ABAFF091BBBFF051CBCFF0136
:203034001E8F828D83EAF0EBA3F0ECA3F0EEA3F0A815088682088683A3A3A3A3A37401F073
:203054008025BF010A7CFF7DFF7EFF7FFF80087C017D007E007F00E5152409F8A60408A605
:203074000508A60608A607E5152409F886820886830886F008E6851581D01522C01585812D
:2030940015C082C083C0F0E581240FF581A81508740426FAE40836FB0886048A828B838C11
:2030B400F0E51524FCF8E612B8CEA308E612B8CEA81508740626FAE40836FB0886048A8239
:2030D4008B838CF0E515240FF812BB9AF6A312BB9A08F6A312BB9A08F6A312BB9A08F6E5D3
:2030F40015240FF8B6010E08B6000A08B6000608B60002803BA8150886820886830886F054
:2031140012BB9AFDA312BB9AFE74162DF582E43EF583E0FAA3E0FBA3E0FCA3E0FFE51524F0
:203134000FF8C3E69A08E69B08E69C08E69F40067582020234AEE515240FF8E608460846C7
:20315400084670258D828E83E0FFBF031C74262DF582E43EF583E515240FF8E0F6A3E0083D
:20317400F6A3E008F6A3E008F6E515240FF8E60846084608466003023273A81508740A26DB
:20319400FBE40836FC0886078B828C838FF0E515240FF8E612B8CEA308E612B8CEA308E675
:2031B40012B8CEA308E612B8CEA8150886820886830886F012BB9AFFA312BB9AFE74082FC5
:2031D400F582E43EF583E0FAA3E0FBE51524FCF8C3E69A08E69B40067582020234AEA815B4
:2031F40008E5152408F9740E26F7E4083609F70809E6F774262FF582E43EF583E5152404E9
:20321400F8E0F6A3E008F6A3E008F6A3E008F6E51524FCF8860408E6C4CCC4540F6CCC547C
:203234000FCC6CCCFFE4FBFAE5152404F8EC26FCEF0836FFEB0836FBEA0836FAE5152408CF
:20325400F886820886830886F0EC12B8CEA3EF12B8CEA3EB12B8CEA3EA12B8CE0234428DCD
:20327400828E83A3A3E0FFE4CFC4CF6FCF54F0CF6FFEE51524FCF8C3E69F08E69E50030243
:20329400336CA8150886820886830886F012BB9AFCA312BB9AFDC007C006E515240FF8E61D
:2032B400C0E008E6C0E008E6C0E008E6C0E08C828D831222FFAA82AB83ACF0FDE58124FCE6
:2032D400F581D006D007E515240FF8A60208A60308A60408A605E515240FF8B6FF1208B62A
:2032F400FF0E08B6FF0A08B6FF067582010234AEE515240FF8C3E6940208E6940008E694DF
:203314000008E69400403BA8150886820886830886F012BB9AFCA312BB9AFD74162CF582A9
:20333400E43DF583E0FAA3E0FBA3E0FCA3E0FDE515240FF8C3E69A08E69B08E69C08E69D83
:2033540040067582020234AEE51524FCF8E6C39FF608E69EF6023286A81508740A26FDE460
:203374000836FE0886078D828E838FF0E515240FF8E612B8CEA308E612B8CEA308E612B8A2
:20339400CEA308E612B8CEA81508E5152404F9740E26F7E4083609F70809E6F7A815088648
:2033B400820886830886F012BB9AFBA312BB9AFCE515240FF8E6C0E008E6C0E008E6C0E0B9
:2033D40008E6C0E08B828C83122225C8E515240BC8A68208A68308A6F008F6E58124FCF5AD
:2033F40081E51524FCF8860508E6C4CDC4540F6DCD540FCD6DCDFCE4FEFFE515240BF8ED66
:2034140026FDEC0836FCEE0836FEEF0836FFE5152404F886820886830886F0ED12B8CEA320
:20343400EC12B8CEA3EE12B8CEA3EF12B8CEA81508741226FDE40836FE088607A815088633
:20345400820886830886F012BB9AFBA312BB9AFCE515240BF874322BF6E43C08F6E51524BB
:20347400FCF8740F56FAE42354E0CAC423CA6ACA54E0CA6AFCE515240BF8EA26FAEC0836CE
:20349400FC7B008D828E838FF0EA12B8CEA3EC12B8CEA3EB12B8CE758200851581D015221A
:2034B400C015E581F515241AF581C8E5152411C8A68208A68308A6F0E5152411F8E5152404
:2034D4000BF9740426F7E4083609F70809E6F7E515240BF886820886830886F012BB9AFE12
:2034F400A312BB9AFFE5152418F874012EF6E43F08F6E5152418F8E60846603DE515241199
:20351400F8E515240EF9740E26F7E4083609F70809E6F7E515240EF886820886830886F010
:2035340012BB9AFFA312BB9AFEA312BB9AFCA312BB9AFDEF4E4C4D7006758204023A87E50D
:20355400152418F8E5152405F9740F56F7097700E5152405F8E6084660030239FB74012F16
:20357400FAE43EFBE43CFCE43DFDE515240EF886820886830886F0EA12B8CEA3EB12B8CE83
:20359400A3EC12B8CEA3ED12B8CEE5152411F8A91509740A26F7E4083609F70809E6F7A887
:2035B400150886820886830886F0E5152407F912BB9AF7A312BB9A09F7A312BB9A09F7A310
:2035D40012BB9A09F7E5152407F8E6084608460846703AE5152411F886820886830886F01B
:2035F40012BB9AFCA312BB9AFD74082CF582E43DF583E0FCA3E0FDE5152418F8C3E69C08BE
:20361400E69D50030239FB758204023A87E5152418F8860408E6C4CCC4540F6CCC540FCC08
:203634006CCCFDE5152411F886820886830886F012BB9AFFA312BB9AFE8F828E83A3A3E0CD
:20365400FB7A001BBBFF011AEB5204EA5205EC4D60030239FBE5152407F8E6C0E008E6C04C
:20367400E008E6C0E008E6C0E08F828E831222FFAF82AE83ADF0FCE58124FCF581E51524D0
:2036940014F8A60708A60608A60508A604E5152414F8C3740196E40896E40896E408964086
:2036B40006758202023A87E5152414F8B6FF1208B6FF0E08B6FF0A08B6FF06758201023ABA
:2036D40087E5152411F886820886830886F012BB9AFAA312BB9AFB74162AF582E43BF58369
:2036F400E0FCA3E0FDA3E0FEA3E0FFE5152414F8C3E69C08E69D08E69E08E69F50030239B6
:2037140077E51524FCF8E608467006758204023A87A8150886820886830886F012BB9AFCE5
:20373400A312BB9AFDA312BB9AFEA312BB9AFFC004C005C006C0078A828B83122CC5AC82FC
:20375400AD83AEF0FFE58124FCF581E5152414F8A60408A60508A60608A607E5152414F872
:20377400E60846084608467006758207023A87E5152414F8B6011208B6000E08B6000A089F
:20379400B60006758202023A87E5152414F8B6FF1208B6FF0E08B6FF0A08B6FF067582015F
:2037B400023A87E5152411F886820886830886F012BB9AFEA312BB9AFF8E828F83121D7C39
:2037D400E5826006758201023A87E5152411F886820886830886F012BB9AFEA312BB9AFF21
:2037F40074322EFEE43FFFE4FDC0E07402C0E0E4C0E08E828F838DF012BA9D15811581155D
:2038140081E5152411F886820886830886F012BB9AFEA312BB9AFF742E2EFCE43FFDC00536
:20383400C004E5152414F8E6C0E008E6C0E008E6C0E008E6C0E08E828F83122225AA82AB04
:2038540083AEF0FFE58124FCF581D004D0058C828D83EAF0EBA3F0EEA3F0EFA3F07F00E5B2
:2038740015241AF87600E5152411F886820886830886F012BB9AFCA312BB9AFD8C828D832D
:20389400A3A3E0FBE515241AF8C3E69B400302392F8C828D83A3A3A3A37401F0E515241194
:2038B400F886820886830886F012BB9AFAA312BB9AFB8A828B83121D7CE582600675820175
:2038D400023A87E5152411F886820886830886F012BB9AFAA312BB9AFB742E2AFFE43BFE05
:2038F4008F828E83E0FDA3E0FCA3E0FBA3E0FA0DBD00090CBC00050BBB00010A8F828E83A8
:20391400EDF0ECA3F0EBA3F0EAA3F0E515241AF806E515241AF8860702387A742E2CFCE4E7
:203934003DFD8C828D83E5152407F8E0F6A3E008F6A3E008F6A3E008F68F02E4FBFEFFE553
:20395400152407F8E6C39AFA08E69BFB08E69EFE08E69FFF8C828D83EAF0EBA3F0EEA3F04D
:20397400EFA3F0A8150886820886830886F0E5152414F9E712B8CEA309E712B8CEA309E7ED
:2039940012B8CEA309E712B8CEE5152411F886820886830886F012BB9AFEA312BB9AFFE53F
:2039B400152414F8E6C0E008E6C0E008E6C0E008E6C0E08E828F83122225AC82AD83AEF007
:2039D400FFE58124FCF581E515240EF886820886830886F0EC12B8CEA3ED12B8CEA3EE12CE
:2039F400B8CEA3EF12B8CEE515240BF886820886830886F0E5152418F9E712B8CEA309E70A
:203A140012B8CEE5152411F8741226FDE40836FE088607E5152411F886820886830886F0B7
:203A340012BB9AFBA312BB9AFCE515240BF874322BF6E43C08F6E5152405F8860208E6C4AF
:203A54002354E0CAC423CA6ACA54E0CA6AFCE515240BF8EA26FAEC0836FC7B008D828E83FC
:203A74008FF0EA12B8CEA3EC12B8CEA3EB12B8CE758200851581D01522C015858115C08299
:203A9400C083C0F0E5812409F581E4C0E0C0E0A8150886820886830886F0123090AC821581
:203AB400811581EC6003023BF3E515240BF87600087600A81508741226FAE40836FB088631
:203AD40007A81508E5152408F9740E26F7E4083609F70809E6F7C002C003C007E5152408C6
:203AF400F886820886830886F0E5152404F912BB9AF7A312BB9A09F7A312BB9A09F7A312E1
:203B1400BB9A09F7A8150886820886830886F012BB9AFAA312BB9AFFC003C002E5152404CF
:203B3400F8E6C0E008E6C0E008E6C0E008E6C0E08A828F83121F62AF82E58124FCF581D09B
:203B540002D0038F04D007D003D002EC6003023BF3C0048A828B838FF012BB9AFCA312BBBE
:203B74009AFDA312BB9AFE8C828D838EF012BB9AFEBEE504D0048005D004EE7029E5152418
:203B94000BF806B600020806E515240BF8E51524FCF986F0E7B5F00A0886F009E7B5F002ED
:203BB4008002800C8039E515240BF87600087600C007C003C0027401C0E0E4C0E0A815086B
:203BD40086820886830886F01234B4AE8215811581D002D003D0078E04EC7003023AEA8CC5
:203BF40082851581D01522C015E581F5152404F581AE82AF83E51524FBF8741A26FBE4081C
:203C140036FC0886058B828C838DF012BB9AFBA312BB9AFCA81508A60308A6040876000824
:203C340076008E828F83E0FEBE0339E51524FBF8741426FDE40836FE0886078D828E838FE0
:203C5400F012BB9AFDA312BB9AFE8E048D077E007D00A81508ED46F6EE0846F6EF0846F680
:203C7400EC0846F6A8150886820886830886F008E6851581D01522C015858115C082C0831F
:203C9400C0F0A81508741A26FAE40836FB088604E51524FAF886060886078A828B838CF077
:203CB400EE12B8CEA3EF12B8CEA81508741426FDE40836FE088607E51524FAF80808860372
:203CD4000886048D828E838FF0EB12B8CEA3EC12B8CE851581D01522C015858115C082C0E1
:203CF40083C0F0E581240BF581E4C0E0C0E0A8150886820886830886F0123090AC8215815C
:203D14001581E515240EF8A604E515240EF8E6600AE515240EF88682023EC7A81508741239
:203D340026FAE40836FB088607A81508E5152404F9741526F7E4083609F70809E6F7A8154A
:203D540008E5152407F9740E26F7E4083609F70809E6F7C002C003C007E5152407F8868209
:203D74000886830886F0E515240AF912BB9AF7A312BB9A09F7A312BB9A09F7A312BB9A09FA
:203D9400F7A8150886820886830886F012BB9AFAA312BB9AFFC003C002E515240AF8E6C007
:203DB400E008E6C0E008E6C0E008E6C0E08A828F83121F62AF82E58124FCF581D002D003E2
:203DD400E515240EF8A607D007D003D002E515240EF8E66003023EC08A828B838FF012BBAF
:203DF4009AFCA312BB9AFDA312BB9AFE8C828D838EF012BB9A700AE515240EF87604023EAF
:203E1400C0C002C003C007740B2CFAE43DFB8E078A828B838FF012BB9AD007D003D0022090
:203E3400E353C002C003C007E5152404F886820886830886F012BB9AFAA312BB9AFBA31220
:203E5400BB9AFFC003C002740BC0E0E4C0E0C002C003C0078C828D838EF012B8E9AE82AF58
:203E740083E58124FBF581D002D003EE4FD007D003D0026037C007C003C002E4C0E0C0E04B
:203E9400A8150886820886830886F01234B4AE8215811581D002D003D007E515240EF8A616
:203EB40006E515240EF8E67003023D67E515240EF88682851581D01522C015858115C08245
:203ED400C083C0F07401C0E0E4C0E0A8150886820886830886F0123A8DAC8215811581ECC7
:203EF4006003024016A81508740E26FAE40836FB0886078A828B838FF012BB9AFEA312BB6C
:203F14009AFBA312BB9AFCA312BB9AFAA8150886820886830886F012BB9AFDA312BB9AFF25
:203F3400C006C003C004C0028D828F83121F62AF82E58124FCF5818F04EC6003024016C083
:203F540004A81508741226FDE40836FE0886078D828E838FF012BB9AFAA312BB9AFBA3126C
:203F7400BB9AFCC007C006C005C0047420C0E0E4C0E0C0E08A828B838CF012BA9D158115C4
:203F9400811581D004D005D006D007A81508741526FAE40836FB0886048A828B838CF012DB
:203FB400BB9AFAA312BB9AFBA312BB9AFC8D828E838FF012BB9AFDA312BB9AFEA312BB9A7E
:203FD400FFC004740BC0E0E4C0E0C002C003C0048D828E838FF012BB07E58124FBF581D0E0
:203FF40004A8150886820886830886F012BB9AFEA312BB9AFF8E828F83A3A3A3A37401F0CC
:20401400D0048C82851581D01522C015858115C082C083C0F0E581240EF581E51524FBF844
:2040340086020886030886048A828B838CF012BB9AFDA312BB9AFEA312BB9AFFE515240494
:20405400F8A60508A60608A607E5152404F886820886830886F012BB9AFFBF2F028003BFF7
:204074005C0DE5152404F806B60002080680DAC002C003C004E5152404F8860508860608F9
:204094008607A81508741526FAE40836FB0886048A828B838CF0E515240AF812BB9AF6A3AC
:2040B40012BB9A08F6A312BB9A08F6E515240AF88602088603088604C007C006C005C0049E
:2040D400C003C002740BC0E0E4C0E07420C0E08A828B838CF012BA9D158115811581D002DD
:2040F400D003D004D005D006D007E5152411F87600E515240FF87600087600E5152407F8B0
:204114007608087600E515240DF87600087600D004D003D002C002C003C004E515240DF893
:204134008603088604E515240DF806B600020806E515240DF8E5152404F9E6F70809E6F758
:20415400EB2DFBEC3EFC8F028B828C838AF012BB9AFBE5152409F8A603E5152409F8C3746B
:204174002096D004D003D00240030242CDE5152409F8B62F030242CDE5152409F8B65C035C
:204194000242CDE5152409F8B62E028013E515240FF8E5152407F9C3E69708E60997403ED3
:2041B400E5152407F8B6080E08B6000AE5152409F8B62E0280067582060243A2E515240F9E
:2041D400F87608087600E5152407F8760B087600E5152411F8E625E025E0F6024129E51548
:2041F4002409F8B6800040067582060243A2C002C003C004E5152409F886037C00C007C032
:2042140006C005C002C003C00490BC3875F080121D34AB82AC8315811581D002D005D006A5
:20423400D007EB4CD004D003D00260067582060243A2E5152409F8B641004015E515240907
:20425400F8E624A5400BE5152411F8E64402F68026E5152409F8B66100401CE5152409F8B8
:20427400E624854012E5152411F8E64401F6E5152409F8E624E0F6C002C003C004E515249B
:204294000FF88603088604E515240FF806B600020806E515240AF8EB26FBEC0836FC088617
:2042B400028B828C838AF0E5152409F8E612B8CED004D003D002024129E5152404F8E62DA3
:2042D400FD08E63EFE8A828B838CF0ED12B8CEA3EE12B8CEA3EF12B8CEE5152409F8C374DF
:2042F4002096B3E433FF60047F0480027F00E5152409F8A607E515240FF8E6084670067533
:2043140082060243A2E515240AF886820886830886F012BB9AFFBFE512E515240AF886821F
:204334000886830886F0740512B8CEE5152407F8B6080F08B6000BE5152411F8E625E025DF
:20435400E0F6E5152411F8740356FFBF0109E5152409F8E64410F6E5152411F8740C56FF6C
:20437400BF0409E5152409F8E64408F6E515240AF8740B26FDE40836FE0886078D828E837F
:204394008FF0E5152409F8E612B8CE758200851581D01522C015858115C082C083C0F0E5CA
:2043B40081240DF581E51524FBF886020886030886048A828B838CF012BB9AFFBF2F028099
:2043D40003BF5C10E51524FBF874012AF6E43B08F608A604A81508E515240AF9740626F7A9
:2043F400E4083609F70809E6F7E515240AF886820886830886F0E412B8CEA312B8CEA31276
:20441400B8CEA312B8CEE51524FBF886050886060886078D828E838FF012BB9AFD3395E057
:20443400FFC3ED9420EF94005043E4C0E0C0E0A8150886820886830886F0123090AF821557
:20445400811581E5152410F8A607A81508741226FDE40836FE0886078D828E838FF0E412A6
:20447400B8CEA312B8CEA312B8CE0245F5A81508E5152407F9741526F7E4083609F7080934
:20449400E6F7A81508E5152404F9741226F7E4083609F70809E6F7E51524FBFF7E007D4045
:2044B400C007C006C005A8150886820886830886F012401EAF82158115811581E5152410A9
:2044D400F8A607E5152410F8E660030245F5A8150886820886830886F0123CECAC82E515BA
:2044F4002410F8A604E5152407F886820886830886F012BB9AFAA312BB9AFBA312BB9AFCB2
:20451400740B2AFAE43BFB8A828B838CF012BB9AFFE5152410F8E6601EE5152410F8B60464
:204534000280030245F5EF30E2030245F5E5152410F876050245F5EF30E2030245F5E5154F
:204554002404F886820886830886F0E515240DF912BB9AF7A312BB9A09F7A312BB9A09F7FA
:20457400E515240DF8740B26FAE40836FB0886048A828B838CF012BB9AFA20E409E5152494
:2045940010F87605805BA8150886820886830886F012BB9AFEA312BB9AFFE515240DF8E6D6
:2045B400C0E008E6C0E008E6C0E08E828F83123BFBAC82AD83AEF0FF158115811581E5150A
:2045D400240AF886820886830886F0EC12B8CEA3ED12B8CEA3EE12B8CEA3EF12B8CE0244C5
:2045F400ABE5152410F88682851581D01522C015858115AE82AF8374322EFCE43FFD7B00EF
:204614008E828F83A3E0FAC007C0067401C0E0E51524FAF8E6C0E008E6C0E008E6C0E0088B
:20463400E6C0E0C004C005C0038A821207EEAD82E58124F8F581D006D007ED600675820360
:204654000246DD74322EFCE43FFD74FE2CFC74013DFD8C828D83E0FCA3E0FDBC5505BDAAF1
:20467400028005758202806174322EFCE43FFD74362CFCE43DFD8C828D83E0FAA3E0FBA3CC
:20469400E0FCA3E07D00BA460EBB410BBC5408BD0005758200803274322EFEE43FFF7452D8
:2046B4002EFEE43FFF8E828F83E0FCA3E0FDA3E0FEA3E07F00BC460EBD410BBE5408BF00A5
:2046D400057582008003758201D01522C015858115C082C083C0F0E5812434F581A815082A
:2046F40086820886830886F012BB9AFAA312BB9AFBA312BB9AFC8A828B838CF012BB9AFFA7
:204714003395E0FEEF24D0FFEE34FFFEC374099FE49E4048C007C00674012AFDE43BFE8C23
:20473400078D828E838FF012BB9AFDBD3A028006D006D0078026D006D00774022AFAE43B23
:20475400FBA8150886820886830886F0EA12B8CEA3EB12B8CEA3EC12B8CE80047F007E009E
:20477400E51524FBF886030886040886058B828C838DF0E412B8CEA312B8CEC3EF9401EEE1
:204794009400400675820B025343C003C004C0058F02EECA25E0CA33EA2409F9E515241DAF
:2047B400F8E7F609E708F6D005D004D003E515241DF8E60846700675820C0253438B828C95
:2047D400838DF0E515241DF8E612B8CEA308E612B8CEE515241DF88682088683E06037E543
:2047F40015241DF88682088683A3E0F582C007C0061207DAAD82D006D007ED20E018E515E9
:2048140024FAF8E6600AED30E20675820A025343758200025343E515241DF88682088683A5
:20483400E4F0E515241DF8E515240CF9740126F7E4083609F7E515240CF88682088683EF5C
:20485400F08F821207C1AF828F05ED30E006758203025343E51524FAF8E6600AED30E206AA
:2048740075820A025343E5152430F8E4F608F608F608F6C0E0C0E0C0E0C0E0E515241DF8BE
:204894008682088683124602AF82E58124FCF581E5152423F8A607E5152423F8B60102800C
:2048B40003024956E515241DF8743226FDE40836FE74BE2DFD74013EFEE515241AF8A6053C
:2048D40008A606087600E515241AF8740426FBE40836FC0886068B828C838EF012BB9A60B6
:2048F40061E515241AF8740826FAE40836FD0886068A828D838EF0E5152430F812BB9AF687
:20491400A312BB9A08F6A312BB9A08F6A312BB9A08F6E5152430F8E6C0E008E6C0E008E623
:20493400C0E008E6C0E0E515241DF88682088683124602AE82E58124FCF581E5152423F82A
:20495400A606E5152423F8B60306758201025343E5152423F8E6600675820D025343E515F4
:20497400241DF8743226FDE40836FE740B2DFDE43EFE8D828E83E0FDA3E0FEBD0005BE0238
:2049940002800675820D025343E515241DF8743226FDE40836FE74162DFDE43EFE8D828E52
:2049B40083E0FDA3E0FEE515242CF8A60508A606087600087600E515242CF8E608460846A1
:2049D4000846702BE515241DF8743226FFE40836FE74242FFFE43EFE8F828E83E515242C6A
:2049F400F8E0F6A3E008F6A3E008F6A3E008F6E515241DF8741A26FBE40836FE8B828E8332
:204A1400E515242CF8E6F008E6A3F008E6A3F008E6A3F0E515241DF8E515240EF9740326F2
:204A3400F7E4083609F7E515241DF8743226FAE40836FD74102AF582E43DF583E0FDFCE5B5
:204A540015240EF88682088683EDF0BC0102800BBC0202800675820D025343C003C0068CCC
:204A7400027B007D007E00C002C003C005C006E515242CF886820886830886F008E612BB06
:204A9400B6AA82AB83ADF0FEE58124FCF581E515242CF8A60208A60308A60508A606E5155F
:204AB400241DF8E515240EF9740226F7E4083609F7E515241DF8743226FDE40836FE740D32
:204AD4002DF582E43EF583E0FEFCE515240EF88682088683EEF0D006D003EC601CC003C0FB
:204AF400067D00EC24FFFAED34FFFEEA5204EE5205D006D003EC4D600675820D025343C0CF
:204B140003C006E515241DF8E5152410F9740826F7E4083609F7E515241DF8743226FAE4C6
:204B34000836FE74112AFAE43EFE8A828E83E0FBA3E0FEE5152410F88682088683EBF0EEDB
:204B5400A3F0EB540F7006D006D003800AD006D00375820D025343C003C006E515241DF8B6
:204B7400743226FAE40836FE74132AFAE43EFE8A828E83E0FBA3E0FEE5152424F8A603080C
:204B9400A606087600087600D006D003E5152424F8E60846084608467033C003C006E51580
:204BB400241DF8743226FAE40836FE74202AFAE43EFE8A828E83E5152424F8E0F6A3E00832
:204BD400F6A3E008F6A3E008F6D006D003C003C006E515241DF8743226FAE40836FE740EFC
:204BF4002AFAE43EFE8A828E83E0FFA3E0FDD006D003EF4D700675820D025343C003C00661
:204C1400E5152404F8A60708A605087600087600E5152404F8E515242CF9E726C0E009E710
:204C34000836C0E009E70836C0E009E70836C0E0E515240BF8D0E0F618D0E0F618D0E0F6A3
:204C540018D0E0F6E5152410F88682088683E0FCA3E0C4CCC4540F6CCC540FCC6CCCFEE4AC
:204C7400FDFBE5152408F8EC26FCEE0836FEED0836FDEB0836FBE515241FF8A60408A606F3
:204C940008A60508A603E5152424F8E515241FF9C3E69708E6099708E6099708E60997D072
:204CB40006D003500675820D025343C003C006E5152424F8E515241FF9E6C397C0E008E64E
:204CD4000997C0E008E60997C0E008E60997C0E0E515240BF8D0E0F618D0E0F618D0E0F6E1
:204CF40018D0E0F6E515240EF88682088683E0FB7C007D007E00C003C004C005C006E51547
:204D14002408F886820886830886F008E612BA30AB82AC83ADF0FEE58124FCF581E51524C9
:204D340028F8A60308A60408A60508A606D006D003E5152428F8E6084608460846700675DB
:204D5400820D025343E5152423F87601E5152428F8C3E694F608E6940F08E6940008E69462
:204D7400004007E5152423F87602E5152428F8C3E694F608E694FF08E6940008E6940040F1
:204D940007E5152423F87603C003C006E515241DF8741626FCE40836FDE5152428F874020B
:204DB40026FAE40836FBE40836FEE40836FF8C828D83EAF0EBA3F0EEA3F0EFA3F0E51524CA
:204DD4001DF8741E26F582E40836F583E5152430F8E6F008E6A3F008E6A3F008E6A3F0E55D
:204DF40015241DF8E5152408F9742226F7E4083609F7E5152430F8E5152404F9E726FA09EC
:204E1400E70836FB09E70836FE09E70836FFE5152408F88682088683EAF0EBA3F0EEA3F0F5
:204E3400EFA3F0E515241DF8E5152404F9742A26F7E4083609F7E5152430F8E515241FF935
:204E5400E726FA09E70836FB09E70836FE09E70836FFE5152404F88682088683EAF0EBA31A
:204E7400F0EEA3F0EFA3F0E5152423F8E5152404F9E4B6030104F7D006D003E5152404F87B
:204E9400E67003024F3EE5152410F88682088683E0FAA3E0FF4A600675820D025343C0036C
:204EB400C006E515241DF8E515240EF9742626F7E4083609F7E515241DF8743226FBE40801
:204ED40036FE742C2BFBE43EFE8B828E83E0FAA3E0FBA3E0FEA3E0FFE515240EF8868208F7
:204EF4008683EAF0EBA3F0EEA3F0EFA3F08C828D83E0FAA3E0FBA3E0FEA3E0FFE515241291
:204F1400F8EA2AF6EB3308F6EE3308F6EF3308F6181818E625E0F608E633F608E633F608C1
:204F3400E633F6D006D003025087E5152410F88682088683E0FAA3E0FF4A700675820D026B
:204F54005343C003C006E515241DF8E5152410F9742626F7E4083609F7E5152408F88682C5
:204F7400088683E0FAA3E0FBA3E0FEA3E0FFE515242CF8E62AFA08E63BFB08E63EFE08E629
:204F94003FFFE5152410F88682088683EAF0EBA3F0EEA3F0EFA3F0E5152423F8B6020280B2
:204FB40006D006D003802A8C828D83E0FAA3E0FBA3E0FEA3E0FFE5152434F8EA2AF6EB3399
:204FD40008F6EE3308F6EF3308F6D006D00302506FC003C0068C828D83E5152408F8E0F67B
:204FF400A3E008F6A3E008F6A3E008F6E5152408F8E6C0E008E6C0E008E6C0E008E6C0E0CC
:20501400900003E4F5F012BBB6AB82AD83AEF0FFE58124FCF581E5152416F8EFC3130808A6
:2050340008F6EE1318F6ED1318F6EB1318F6E5152408F8740156FAE4FCFEFFE5152416F849
:20505400E5152434F9EA26F7EC083609F7EE083609F7EF083609F7D006D003E5152434F874
:20507400E5152412F9E6F70809E6F70809E6F70809E6F78B828E83E5152416F8E0F6A3E0A9
:2050940008F6A3E008F6A3E008F6E5152412F874FF2674010836FCE40836FEE408367F00CB
:2050B400C313CE13CC13FAE5152416F8C3E69A08E69C08E69E08E69F500675820D02534348
:2050D400E515241DF8E5152412F9740E26F7E4083609F7E5152412F8868208868374FFF0FB
:2050F400A3F0A3F0A3F0E515241DF8740A26FCE40836FD8C828D83E4F0A3F0A3F0A3F0E561
:20511400152404F8E670030252EAC004C005E515241DF88682088683A3A3A3A3A3E4F0E5F2
:2051340015241DF8741226FFE40836FEE515241DF8743226FCE40836FD74302CFCE43DFD3E
:205154008C828D83E0FCA3E0FD8C028D03E4FCFDE5152430F8E5152408F9EA26F7EB083631
:2051740009F7EC083609F7ED083609F78F828E83E5152408F8E6F008E6A3F008E6A3F008A6
:20519400E6A3F0E515241DF8743226FEE40836FD7F00E515240CF88682088683E0FCC0050B
:2051B400C0047401C0E0E5152408F8E6C0E008E6C0E008E6C0E008E6C0E0C006C005C00762
:2051D4008C821207EEAF82E58124F8F581D004D005D005D004EF60030252EAE515241DF868
:2051F400743226FEE40836FF74FE2EFE74013FFF8E828F83E0FEA3E0FFBE5505BFAA0280DA
:20521400030252EAE515241DF8743226FEE40836FF8E828F83E0FAA3E0FBA3E0FEA3E0FF9E
:20523400BA520BBB5208BE6105BF410280030252EAE515241DF8743226FEE40836FF74E4D1
:205254002EFE74013FFF8E828F83E0FAA3E0FBA3E0FEA3E0FFBA720BBB7208BE4105BF614E
:205274000280028071E515241DF8E5152416F9743226F7E4083609F7E5152416F874EC26AE
:20529400FA74010836FB8A828B83E0FAA3E0FBA3E0FEA3E0FF8C828D83EAF0EBA3F0EEA3D6
:2052B400F0EFA3F0E5152416F874E826FE74010836FF8E828F83E0FCA3E0FDA3E0FEA3E088
:2052D400FFE5152412F88682088683ECF0EDA3F0EEA3F0EFA3F0E515241DF88682088683CF
:2052F400E5152423F9E7F0E515241DF8740626F582E40836F583050BE4B50B02050CE50BEE
:20531400F0E50CA3F0E515241DF8742E26F582E40836F583E4F0A3F0A3F0A3F0E515241D31
:20533400F88682088683A3A3A3A3E4F0758200851581D01522AD82AE83AFF0ED4E60368D72
:20535400828E83E0FCA3E0FF4C602A8C828F83E0602374062CF582E43FF583E0FAA3E0FBDF
:205374008D828E83A3A3E0FDA3E0FEEAB50506EBB50602800575820980188C828F83A3E043
:20539400F5821207DAE58230E005758203800375820022C015858115AF82BF0100400575E2
:2053B400820B8039EF2F2409F9870609870719EE4F60068E828F83E4F0E51524FCF8E60879
:2053D40046600CE51524FCF88682088683E4F0E51524FCF8E6F70908E6F7758200D015222D
:2053F400C015858115C082C083E581242DF581A81508E60846700675820902595CA815080C
:205414008682088683E4F0A3F0E51524FAF8E6541FF6E51524FAF886055305FEE515240387
:20543400F8A605E5152404FC7B007A40E51524FBFD7E007F40E5152403F8E6C0E0C004C0EC
:2054540003C0028D828E838FF01246E0AF82E58124FCF581E515241CF8A607E515241CF85E
:20547400E66003025955E5152404F92415F8E515241DFD7C007B40A60508A60408A60389CD
:20549400057C007B40C001E51524FBF8E6C0E008E6C0E008E6C0E08D828C838BF01243A8B2
:2054B400AD82158115811581D001E515241CF8A605741229F8C001E5152429F9E6F708E6C6
:2054D40009F708E609F71818D001C000E515241CF8E6D0007019C000E5152429F8E6084665
:2054F400D000700BC000E515241CF87606D000C000E51524FAF8E6541C7005D000025794B7
:20551400E515241CF8E6D000605CC000E515241CF8B604028004D000802AD000C00089020C
:205534007E007F408A828E838FF0C001C000123ECDAF82D000D001C000E515241CF8A6076F
:20555400D000D000C000E51524FAF8E64408F6D000C001E5152429F9E6F708E609F708E615
:2055740009F7D0018037E5152429F8740B26FAE40836FE0886078A828E838FF012BB9AFAFF
:2055940054116009E515241CF876078010E51524FAF8E630E207E515241CF87608E515240D
:2055B4001CF8E660030257D6E51524FAF8E620E3030257D6C001128CEFAF82AE83ADF0FCD7
:2055D400D001E515242CF8A60708A60608A60508A604E5152429F8740E26FAE40836FE08D5
:2055F40086078A828E838FF0E515242CF8E612B8CEA308E612B8CEA308E612B8CEA308E6CB
:2056140012B8CEE5152429F8740B26FAE40836FE0886078A828E838FF0E412B8CEE5152415
:2056340029F8741C26FAE40836FE0886078A828E838FF0E412B8CEA312B8CEA312B8CEA39F
:2056540012B8CE870609870719C001E5152429F8E6C0E008E6C0E008E6C0E08E828F83128B
:205674003BFBAF82AE83ACF0FD158115811581D0018F028E03C005C004C003C002C001E47D
:20569400C0E0C0E0C0E0C0E0E5152429F886820886830886F0123C8BE58124FCF581D001FA
:2056B400D002D003D004D0058706098707198E828F83A3A3A3A37401F0EA4B4C4D700302F5
:2056D40057D6870609870719742E2EF582E43FF583E515242CF8E0F6A3E008F6A3E008F650
:2056F400A3E008F6C005C004C003C002C001C002C003C004C0058E828F83122AC1AF82E503
:205714008124FCF581D001D002D003D004D005E515241CF8A607E515241CF8E6600302578C
:20573400D6870609870719740A2EFEE43FFF1ABAFF091BBBFF051CBCFF011D8E828F83EABF
:20575400F0EBA3F0ECA3F0EDA3F0870609870719C001E515242CF8E6C0E008E6C0E008E686
:20577400C0E008E6C0E08E828F83121F62AF82E58124FCF581D001E515241CF8A607804293
:20579400E515241CF8E6703AE5152429F8740B26FAE40836FE0886078A828E838FF012BB37
:2057B4009AFF30E409E515241CF876048014E51524FAF8E630E10BEF30E007E515241CF895
:2057D4007607E515241CF8E67062E51524FAF8E630E309E51524FAF8E64420F6A8150874B3
:2057F4001A26FEE40836FF870209870519742E2AF582E43DF583E0FAA3E0FBA3E0FCA3E0C9
:20581400FD8E828F83EAF0EBA3F0ECA3F0EDA3F0A81508741E26F582E40836F583E5152452
:2058340029F8E6F008E6A3F008E6A3F0E515241CF8E66003025955A815088682088683A3AF
:20585400A3A3A3E51524FAF8E6F0A81508740E26FEE40836FF870409870519C007C006C053
:2058740001E5152429F8E6C0E008E6C0E008E6C0E08C828D83123BFBAA82AB83ACF0FD15C4
:205894008115811581D001D006D0078E828F83EAF0EBA3F0ECA3F0EDA3F0A81508740A26E7
:2058B400FEE40836FFE5152429F8741C26FBE40836FC0886058B828C838DF012BB9AFBA376
:2058D40012BB9AFCA312BB9AFDA312BB9AFA8E828F83EBF0ECA3F0EDA3F0EAA3F0A8150808
:2058F400740626F582E40836F583E4F0A3F0A3F0A3F0A81508741626F582E40836F583E4EC
:20591400F0A3F0A3F0A3F0870609870719A815088682088683EEF0EFA3F0A81508740226EE
:20593400FEE40836FF870409870574062CF582E43DF583E0FCA3E0FD8E828F83ECF0EDA374
:20595400F0E515241CF88682851581D01522C015858115C082C083E5812427F581E515242D
:20597400FBF8E5152424F9E6F70809E6F70809E6F7E51524F6F8E5152407F9E6F70809E62E
:20599400F70809E6F7E5152407F886820886830886F0E412B8CEA312B8CEA815088603084D
:2059B40086067F008B828E838FF0125349E582FF60058F820260C4A81508E515240EF9741D
:2059D4000426F7E4083609F7E515240EF88682088683E0FB30E7067582020260C4EB20E031
:2059F400067582070260C4A81508740A26F582E40836F583E5152412F8E0F6A3E008F6A3CD
:205A1400E008F6A3E008F6A81508E5152403F9740626F7E4083609F7E5152403F886820852
:205A34008683E0FAA3E0FBA3E0FCA3E0FDE5152412F8E6C39AFA08E69BFB08E69CFC08E695
:205A54009DFDE5152420F8A60208A60308A60408A605E51524F9F88602088603E4FCFDE5BA
:205A7400152420F8C3E69A08E69B08E69C08E69D5010E5152420F8E51524F9F9E6F708094C
:205A9400E6F7A81508E5152412F9741226F7E4083609F7A81508E5152410F9740E26F7E4F3
:205AB400083609F7A81508E5152405F9741626F7E4083609F7E51524F9F8E6084670030232
:205AD40060C1E5152403F88682088683E5152416F9E0F7A3E009F7A3E009F7A3E009F7E5ED
:205AF400152416F8E6700508E630E003025F07E5152416F8E515240AF9080808E609090921
:205B14007700C31319F718E61319F718E61319F7A815088682088683E0FFA3E0FE8F828EF5
:205B340083A3A3E0FD1DE4FCFBFAE515240AF8E6520508E6520408E6520308E65202E51599
:205B54002429F8A605E5152429F8E66003025C45E5152416F8E60846084608467017E51599
:205B74002410F88682088683E0FAA3E0FBA3E0FCA3E0FD804AE5152412F88682088683E08A
:205B9400FDA3E0FCA3E0FBA3E0FAC005C004C003C0028F828E831222FFC8E515240AC8A6B9
:205BB4008208A68308A6F008F6E58124FCF581E515240AF88602088603088604088605C365
:205BD400EA9402EB9400EC9400ED94005021E515240EF88682088683E0FF430780E515243C
:205BF4000EF88682088683EFF07582020260C4BAFF2ABBFF27BCFF24BDFF21E515240EF8D0
:205C14008682088683E0FF430780E515240EF88682088683EFF07582010260C4E515241244
:205C3400F88682088683EAF0EBA3F0ECA3F0EDA3F0E5152412F88682088683E0FCA3E0FD4B
:205C5400A3E0FEA3E0FFA815088682088683E0FAA3E0FBC004C005C006C0078A828B8312B5
:205C74002225AC82AD83AEF0FFE58124FCF581E515241CF8A60408A60508A60608A607E5F5
:205C940015241CF8E60846084608467021E515240EF88682088683E0FB430380E515240E38
:205CB400F88682088683EBF07582020260C4E5152429F88602E4FBFEFFE515241CF8EA26E0
:205CD400F6EB0836F6EE0836F6EF0836F6E51524F9F8E5152427F908E6C313F7097700E5E9
:205CF400152427F8E608467003025EEAE5152429F886047D008C028D03E5152427F8E62A96
:205D1400FA08E63BFBA815088682088683E0FEA3E0FF8E828F83A3A3E515240AF8E0F6E5D0
:205D340015240AF886067F00C3EE9AEF9B501AE515240AF886027B00EAC39CFCEB9DFDE5F8
:205D5400152427F8A60408A605E5152427F88605A815088682088683E0FBA3E0FC8B828CE1
:205D740083A3E0FCC005E515241CF8E6C0E008E6C0E008E6C0E008E6C0E0E5152424F8E6C6
:205D9400C0E008E6C0E008E6C0E08C821207EEAD82E58124F8F581ED6021E515240EF886DF
:205DB40082088683E0FD430580E515240EF88682088683EDF07582010260C4A81508868292
:205DD400088683E0FCA3E0FD74042CFAE43DFB8A828B83E07003025ED5742E2CF582E43D80
:205DF400F583E515240AF8E0F6A3E008F6A3E008F6A3E008F6C004C005E515240AF8E515FB
:205E1400241CF9E6C397C0E008E60997C0E008E60997C0E008E60997C0E0E5152419F8D0CC
:205E3400E0F618D0E0F618D0E0F618D0E0F6E5152427F88604088605E4FEFFE5152416F8D7
:205E5400C3E69C08E69D08E69E08E69FD005D004506F74322CFCE43DFDE5152416F8A6041B
:205E740008A605087600E515240AF8E515241CF9E6C397FA08E60997FB08E60997FE08E64D
:205E94000997FFEA2ACB33CE33CF7A00E5152424F8EA26FAEB0836FB088606E4C0E07402FD
:205EB400C0E0E5152416F8E6C0E008E6C0E008E6C0E08A828B838EF012BB07E58124FBF57A
:205ED40081E5152427F8E515241AF9E625E009F719770002600EE5152405F88682088683A0
:205EF400E515241CF9E7F009E7A3F009E7A3F009E7A3F0E5152403F88682088683E0FAA34C
:205F1400E0FBA3E0FCA3E0FD530301E515241AF8E4C39AF674029B08F6E515241AF8E5159C
:205F340024F9F9C3E79609E708965010E51524F9F8E515241AF9E6F70809E6F7E5152405DB
:205F5400F88682088683E0FAA3E0FBA3E0FCA3E0FDA815088682088683E0FEA3E0FFC002C5
:205F7400C003C004C0058E828F83121F62AF82E58124FCF581EF6021E515240EF88682083B
:205F94008683E0FD430580E515240EF88682088683EDF07582010260C4A8150886820886AC
:205FB40083E0FCA3E0FD74322CFCE43DFDE5152403F88682088683E0FAA3E0FBA3E0A3E072
:205FD400530301E4EA2CFCEB3DFD7F00E5152424F88602088603088606E515241AF8E6C0FF
:205FF400E008E6C0E0C004C005C0078A828B838EF012BB07E58124FBF581E5152424F8E549
:2060140015241AF9E726F609E70836F6E5152403F88682088683E515240AF9E0F7A3E00943
:20603400F7A3E009F7A3E009F7E515241AF88602088603E4FEFFE515240AF8EA26FAEB0808
:2060540036FBEE0836FEEF0836FFE5152403F88682088683EAF0EBA3F0EEA3F0EFA3F0E533
:20607400152407F886820886830886F012BB9AFEA312BB9AFFE515241AF8E62EFE08E63F60
:20609400FFE5152407F886820886830886F0EE12B8CEA3EF12B8CEE51524F9F8E515241A42
:2060B400F9E6C397F608E60997F6025AC9758200851581D01522C015858115C082C083E581
:2060D400812423F581E51524FBF8E5152423F9E6F70809E6F70809E6F7E51524F6F8E51564
:2060F400240FF9E6F70809E6F70809E6F7E515240FF886820886830886F0E412B8CEA312BA
:20611400B8CEA8150886030886067F008B828E838FF0125349E582FF60058F82026A31A818
:206134001508E5152416F9740426F7E4083609F7E5152416F88682088683E0FB30E7067598
:206154008202026A31EB20E106758207026A31A81508E5152409F9740A26F7E4083609F7DB
:20617400E5152409F88682088683E5152405F9E0F7A3E009F7A3E009F7A3E009F7E5152439
:20619400F9F88602088603E4FCFDE5152405F8EA26FAEB0836FBEC0836FCED0836FDE51573
:2061B4002405F8C3EA96EB0896EC0896ED0896500AE51524F9F87600087600A81508E515AD
:2061D4002405F9741226F7E4083609F7A81508E5152418F9741626F7E4083609F7E51524E9
:2061F400F9F8E6084670030269AEA81508E5152403F9740626F7E4083609F7E5152403F829
:206214008682088683E5152412F9E0F7A3E009F7A3E009F7A3E009F7E5152412F8E6700545
:2062340008E630E0030267CBE5152412F8E515240BF9080808E60909097700C31319F7183D
:20625400E61319F718E61319F7A815088682088683E0FFA3E0FE8F828E83A3A3E0FD1DE47C
:20627400FCFBFAE515240BF8E6520508E6520408E6520308E65202E5152422F8A605E51515
:206294002422F8E660030263F4E5152412F8E60846084608466003026332A81508E5152435
:2062B4000BF9740E26F7E4083609F7E515240BF88682088683E0FAA3E0FBA3E0FCA3E0FD74
:2062D400EA4B4C4D600302637CE4C0E0C0E0C0E0C0E08F828E83122CC5C8E5152412C8A6A9
:2062F4008208A68308A6F008F6E58124FCF581E5152412F88602088603088604088605E5F4
:2063140015240BF88682088683E5152412F9E7F009E7A3F009E7A3F009E7A3F0804AE515C7
:206334002405F88682088683E0FDA3E0FCA3E0FBA3E0FAC005C004C003C0028F828E831276
:206354002CC5C8E515240BC8A68208A68308A6F008F6E58124FCF581E515240BF8860208DD
:206374008603088604088605EA4B4C4D70030269AEBA012ABB0027BC0024BD0021E515245E
:2063940016F88682088683E0FF430780E5152416F88682088683EFF0758202026A31BAFFA6
:2063B4002ABBFF27BCFF24BDFF21E5152416F88682088683E0FF430780E5152416F88682E0
:2063D400088683EFF0758201026A31E5152405F88682088683EAF0EBA3F0ECA3F0EDA3F099
:2063F400A815088682088683E0FEA3E0FF742E2EF582E43FF583E515240BF8E0F6A3E008E7
:20641400F6A3E008F6A3E008F6E5152418F88682088683E0FAA3E0FBA3E0FCA3E0FDE515D8
:20643400240BF8E6B5021108E6B5030C08E6B5040708E6B505028002802C8E828F83121DEA
:206454007CE5826021E5152416F88682088683E0FF430780E5152416F88682088683EFF0B2
:20647400758201026A31E5152405F88682088683E0FCA3E0FDA3E0FEA3E0FFA81508868213
:20649400088683E0FAA3E0FBC004C005C006C0078A828B83122225AC82AD83AEF0FFE58195
:2064B40024FCF581E515241AF8A60408A60508A60608A607E515241AF8E60846084608463C
:2064D4007021E5152416F88682088683E0FB430380E5152416F88682088683EBF075820218
:2064F400026A31E5152422F88602E4FBFEFFE515241AF8EA26F6EB0836F6EE0836F6EF08E1
:2065140036F6E51524F9F8E515241EF908E6C313F7097700E515241EF8E608467003026778
:2065340007E5152422F886047D008C028D03E515241EF8E62AFA08E63BFBA81508868208AC
:206554008683E0FEA3E0FF8E828F83A3A3E515240BF8E0F6E515240BF886067F00C3EE9AE8
:20657400EF9B501AE515240BF886027B00EAC39CFCEB9DFDE515241EF8A60408A605E5159A
:20659400241EF88605A815088682088683E0FBA3E0FC8B828C83A3E0FCC005E515241AF85A
:2065B400E6C0E008E6C0E008E6C0E008E6C0E0E5152423F8E6C0E008E6C0E008E6C0E08C30
:2065D400821208FDAD82E58124F8F581ED6021E5152416F88682088683E0FD430580E51595
:2065F4002416F88682088683EDF0758201026A31A815088682088683E0FCA3E0FD742E2CC2
:20661400F582E43DF583E515240BF8E0F6A3E008F6A3E008F6A3E008F6E515240BF8E515C1
:20663400241AF9E6C397C0E008E60997C0E008E60997C0E008E60997C0E0E5152415F8D0AA
:20665400E0F618D0E0F618D0E0F618D0E0F6E515241EF88602088603E4FEFFE5152412F8C0
:20667400C3E69A08E69B08E69E08E69F5070E515240BF8E515241AF9E6C397FA08E6099747
:20669400FB08E60997FE08E60997FFEA2ACB33CE33CF7A00E5152423F8EA26FAEB0836FB0F
:2066B40008860674322CFCE43DFDE4FFC0E07402C0E0C002C003C0068C828D838FF012BBF8
:2066D40007E58124FBF581A815088682088683E0FEA3E0FF8E828F83A3A3A3A3E4F0E515EA
:2066F400241EF8E5152420F9E625E009F71977000268FBE5152403F88682088683E51524E5
:206714000BF9E0F7A3E009F7A3E009F7A3E009F7E5152409F88682088683E0FAA3E0FBA3CE
:20673400E0FCA3E0FDE515240BF8C3E69A08E69B08E69C08E69D4062A81508868208868367
:20675400E0FCA3E0FD8C828D83121D7CE5826021E5152416F88682088683E0FD430580E549
:20677400152416F88682088683EDF0758201026A31A815088682088683E0FCA3E0FD742E57
:206794002CF582E43DF583E515241AF8E6F008E6A3F008E6A3F008E6A3F0E5152418F8866C
:2067B40082088683E515241AF9E7F009E7A3F009E7A3F009E7A3F0E5152403F886820886F2
:2067D40083E0FAA3E0FBA3E0FCA3E0FD530301E5152420F8E4C39AF674029B08F6E51524DA
:2067F40020F8E51524F9F9C3E79609E708965010E51524F9F8E5152420F9E6F70809E6F71E
:20681400E5152418F88682088683E0FAA3E0FBA3E0FCA3E0FDA815088682088683E0FEA367
:20683400E0FFC002C003C004C0058E828F83121F62AF82E58124FCF581EF6021E5152416D1
:20685400F88682088683E0FD430580E5152416F88682088683EDF0758201026A31E5152499
:2068740023F8E5152412F9E6F70809E6F70809E6F7A815088682088683E0FAA3E0FF743227
:206894002AFCE43FFBE5152403F88682088683E0FAA3E0FDA3E0A3E0530501E4EA2CFAEDD4
:2068B4003BFD7F00E5152420F8E6C0E008E6C0E0E5152412F8E6C0E008E6C0E008E6C0E0F9
:2068D4008A828D838FF012BB07E58124FBF581A815088682088683E0FEA3E0FF8E828F83DA
:2068F400A3A3A3A37401F0E5152423F8E5152420F9E726F609E70836F6E5152403F88682DB
:20691400088683E515240BF9E0F7A3E009F7A3E009F7A3E009F7E5152420F8860208860381
:20693400E4FEFFE515240BF8EA26FAEB0836FBEE0836FEEF0836FFE5152403F8868208860E
:2069540083EAF0EBA3F0EEA3F0EFA3F0E515240FF886820886830886F012BB9AFEA312BBB4
:206974009AFFE5152420F8E62EFE08E63FFFE515240FF886820886830886F0EE12B8CEA311
:20699400EF12B8CEE51524F9F8E5152420F9E6C397F608E60997F60261F1A81508740626A3
:2069B400F582E40836F583E515240BF8E0F6A3E008F6A3E008F6A3E008F6E5152409F88693
:2069D40082088683E0FAA3E0FBA3E0FEA3E0FFE515240BF8C3EA96EB0896EE0896EF0896AF
:2069F400501DE5152409F88682088683E515240BF9E7F009E7A3F009E7A3F009E7A3F0E577
:206A1400152416F88682088683E0FF430720E5152416F88682088683EFF075820085158183
:206A3400D01522C015858115C082C083E581240DF581A8150886030886047D008B828C8340
:206A54008DF0125349E582FD6003026C43A81508E5152407F9740426F7E4083609F7E515EB
